{
    "fileName": "NGNT.sol",
    "contractName": "NGNT",
    "source": "pragma solidity ^0.5.5;\n\nimport '@openzeppelin/contracts-ethereum-package/contracts/token/ERC20/ERC20.sol';\nimport \"@openzeppelin/contracts-ethereum-package/contracts/GSN/GSNRecipient.sol\";\nimport '@openzeppelin/contracts-ethereum-package/contracts/math/SafeMath.sol';\nimport \"@0x/contracts-utils/contracts/src/LibBytes.sol\";\n\nimport './Ownable.sol';\nimport './Blacklistable.sol';\nimport './Pausable.sol';\n\ncontract V1 is GSNRecipient, Ownable, ERC20, Pausable, Blacklistable {\n    using SafeMath for uint256;\n\n    string public name;\n    string public symbol;\n    uint8 public decimals;\n    string public currency;\n    address public masterMinter;\n    bool internal initialized;\n\n    enum GSNErrorCodes {\n        INSUFFICIENT_BALANCE, NOT_ALLOWED\n    }\n\n    uint256 public gsnFee;\n    mapping(address => uint256) internal balances;\n    mapping(address => mapping(address => uint256)) internal allowed;\n    uint256 internal totalSupply_;\n    mapping(address => bool) internal minters;\n    mapping(address => uint256) internal minterAllowed;\n\n    event Mint(address indexed minter, address indexed to, uint256 amount);\n    event Burn(address indexed burner, uint256 amount);\n    event GSNFeeUpdated(uint256 oldFee, uint256 newFee);\n    event GSNFeeCharged(uint256 fee, address user);\n    event MinterConfigured(address indexed minter, uint256 minterAllowedAmount);\n    event MinterRemoved(address indexed oldMinter);\n    event MasterMinterChanged(address indexed newMasterMinter);\n\n    function initialize(\n        string memory _name,\n        string memory _symbol,\n        string memory _currency,\n        uint8 _decimals,\n        address _masterMinter,\n        address _pauser,\n        address _blacklister,\n        address _owner,\n        uint256 _gsnFee\n    ) public {\n        require(!initialized);\n        require(_masterMinter != address(0));\n        require(_pauser != address(0));\n        require(_blacklister != address(0));\n        require(_owner != address(0));\n\n        GSNRecipient.initialize();\n        name = _name;\n        symbol = _symbol;\n        currency = _currency;\n        decimals = _decimals;\n        masterMinter = _masterMinter;\n        pauser = _pauser;\n        blacklister = _blacklister;\n        gsnFee = _gsnFee;\n        setOwner(_owner);\n        initialized = true;\n    }\n\n    /**\n      * @dev Throws if called by any account other than a minter\n    */\n    modifier onlyMinters() {\n        require(minters[_msgSender()] == true);\n        _;\n    }\n\n    /**\n     * @dev Function to mint tokens\n     * @param _to The address that will receive the minted tokens.\n     * @param _amount The amount of tokens to mint. Must be less than or equal to the minterAllowance of the caller.\n     * @return A boolean that indicates if the operation was successful.\n    */\n    function mint(address _to, uint256 _amount) whenNotPaused onlyMinters notBlacklisted(_msgSender()) notBlacklisted(_to) public returns (bool) {\n        require(_to != address(0));\n        require(_amount > 0);\n\n        uint256 mintingAllowedAmount = minterAllowed[_msgSender()];\n        require(_amount <= mintingAllowedAmount);\n\n        totalSupply_ = totalSupply_.add(_amount);\n        balances[_to] = balances[_to].add(_amount);\n        minterAllowed[_msgSender()] = mintingAllowedAmount.sub(_amount);\n        emit Mint(_msgSender(), _to, _amount);\n        emit Transfer(address(0), _to, _amount);\n        return true;\n    }\n\n    /**\n     * @dev Throws if called by any account other than the masterMinter\n    */\n    modifier onlyMasterMinter() {\n        require(_msgSender() == masterMinter);\n        _;\n    }\n\n    /**\n     * @dev Get minter allowance for an account\n     * @param minter The address of the minter\n     */\n    function minterAllowance(address minter) public view returns (uint256) {\n        return minterAllowed[minter];\n    }\n\n    /**\n     * @dev Checks if account is a minter\n     * @param account The address to check\n    */\n    function isMinter(address account) public view returns (bool) {\n        return minters[account];\n    }\n\n    /**\n     * @dev Get allowed amount for an account\n     * @param owner address The account owner\n     * @param spender address The account spender\n    */\n    function allowance(address owner, address spender) public view returns (uint256) {\n        return allowed[owner][spender];\n    }\n\n    /**\n     * @dev Get totalSupply of token\n    */\n    function totalSupply() public view returns (uint256) {\n        return totalSupply_;\n    }\n\n    /**\n     * @dev Get token balance of an account\n     * @param account address The account\n     */\n    function balanceOf(address account) public view returns (uint256) {\n        return balances[account];\n    }\n\n    /**\n     * @dev Adds blacklisted check to approve\n     * @return True if the operation was successful.\n    */\n    function approve(address _spender, uint256 _value) whenNotPaused notBlacklisted(_msgSender()) notBlacklisted(_spender) public returns (bool) {\n        allowed[_msgSender()][_spender] = _value;\n        emit Approval(_msgSender(), _spender, _value);\n        return true;\n    }\n\n    /**\n     * @dev Adds blacklisted & not paused check to increaseAllowance\n     * @return True if the operation was successful.\n    */\n    function increaseAllowance(address _spender, uint256 _addedValue) whenNotPaused notBlacklisted(_msgSender()) notBlacklisted(_spender) public returns (bool) {\n        _approve(_msgSender(), _spender, allowed[_msgSender()][_spender].add(_addedValue));\n        return true;\n    }\n\n    /**\n     * @dev Adds blacklisted & not paused check to decreaseAllowance\n     * @return True if the operation was successful.\n    */\n    function decreaseAllowance(address _spender, uint256 _subtractedValue) whenNotPaused notBlacklisted(_msgSender()) notBlacklisted(_spender) public returns (bool) {\n        _approve(_msgSender(), _spender, allowed[_msgSender()][_spender].sub(_subtractedValue));\n        return true;\n    }\n\n    /**\n     * @dev Sets `amount` as the allowance of `spender` over the `owner`s tokens.\n     *\n     * This is internal function is equivalent to `approve`, and can be used to\n     * e.g. set automatic allowances for certain subsystems, etc.\n     *\n     * Emits an `Approval` event.\n     */\n    function _approve(address owner, address spender, uint256 value) internal {\n        allowed[owner][spender] = value;\n        emit Approval(owner, spender, value);\n    }\n\n    /**\n     * @dev Transfer tokens from one address to another.\n     * @param _from address The address which you want to send tokens from\n     * @param _to address The address which you want to transfer to\n     * @param _value uint256 the amount of tokens to be transferred\n     * @return bool success\n    */\n    function transferFrom(address _from, address _to, uint256 _value) whenNotPaused notBlacklisted(_to) notBlacklisted(_msgSender()) notBlacklisted(_from) public returns (bool) {\n        require(_to != address(0));\n        require(_value <= balances[_from]);\n        require(_value <= allowed[_from][_msgSender()]);\n\n        balances[_from] = balances[_from].sub(_value);\n        balances[_to] = balances[_to].add(_value);\n        allowed[_from][_msgSender()] = allowed[_from][_msgSender()].sub(_value);\n        emit Transfer(_from, _to, _value);\n        return true;\n    }\n\n    /**\n     * @dev transfer token for a specified address\n     * @param _to The address to transfer to.\n     * @param _value The amount to be transferred.\n     * @return bool success\n    */\n    function transfer(address _to, uint256 _value) whenNotPaused notBlacklisted(_msgSender()) notBlacklisted(_to) public returns (bool) {\n        require(_to != address(0));\n        require(_value <= balances[_msgSender()]);\n\n        balances[_msgSender()] = balances[_msgSender()].sub(_value);\n        balances[_to] = balances[_to].add(_value);\n        emit Transfer(_msgSender(), _to, _value);\n        return true;\n    }\n\n    /**\n     * @dev Function to add/update a new minter\n     * @param minter The address of the minter\n     * @param minterAllowedAmount The minting amount allowed for the minter\n     * @return True if the operation was successful.\n    */\n    function configureMinter(address minter, uint256 minterAllowedAmount) whenNotPaused onlyMasterMinter public returns (bool) {\n        minters[minter] = true;\n        minterAllowed[minter] = minterAllowedAmount;\n        emit MinterConfigured(minter, minterAllowedAmount);\n        return true;\n    }\n\n    /**\n     * @dev Function to remove a minter\n     * @param minter The address of the minter to remove\n     * @return True if the operation was successful.\n    */\n    function removeMinter(address minter) onlyMasterMinter public returns (bool) {\n        minters[minter] = false;\n        minterAllowed[minter] = 0;\n        emit MinterRemoved(minter);\n        return true;\n    }\n\n    /**\n     * @dev allows a minter to burn some of its own tokens\n     * Validates that caller is a minter and that sender is not blacklisted\n     * amount is less than or equal to the minter's account balance\n     * @param _amount uint256 the amount of tokens to be burned\n    */\n    function burn(uint256 _amount) whenNotPaused onlyMinters notBlacklisted(_msgSender()) public {\n        uint256 balance = balances[_msgSender()];\n        require(_amount > 0);\n        require(balance >= _amount);\n\n        totalSupply_ = totalSupply_.sub(_amount);\n        balances[_msgSender()] = balance.sub(_amount);\n        emit Burn(_msgSender(), _amount);\n        emit Transfer(_msgSender(), address(0), _amount);\n    }\n\n    /**\n     * @dev allows the owner to update the master minter address\n     * Validates that caller is an owner\n     * @param _newMasterMinter the new master minter address\n    */\n    function updateMasterMinter(address _newMasterMinter) onlyOwner public {\n        require(_newMasterMinter != address(0));\n        masterMinter = _newMasterMinter;\n        emit MasterMinterChanged(masterMinter);\n    }\n\n    /**\n     * @dev allows the owner to update the gsnFee\n     * Validates that caller is an owner\n     * Validates _newGsnFee is not 0 and that its not more than two times old fee\n     * @param _newGsnFee the new gnsFee\n    */\n    function updateGsnFee(uint256 _newGsnFee) onlyOwner public {\n        require(_newGsnFee != 0);\n        require(_newGsnFee <= gsnFee.mul(2));\n        uint256 oldFee = gsnFee;\n        gsnFee = _newGsnFee;\n        emit GSNFeeUpdated(oldFee, gsnFee);\n    }\n\n    /**\n     * @dev \"callback\" to determine if a GSN call should be accepted\n     * Validates that call is transfer, approve or transferFrom\n     * Validates that user NGNT balances is enough for the transaction + gsnFee\n    */\n    function acceptRelayedCall(\n        address relay,\n        address from,\n        bytes calldata encodedFunction,\n        uint256 transactionFee,\n        uint256 gasPrice,\n        uint256 gasLimit,\n        uint256 nonce,\n        bytes calldata approvalData,\n        uint256 maxPossibleCharge\n    ) external view returns (uint256, bytes memory) {\n        uint256 userBalance = balanceOf(from);\n\n        bytes4 calldataSelector = LibBytes.readBytes4(encodedFunction, 0);\n\n        if (calldataSelector == this.transfer.selector) {\n            uint256 valuePlusGsnFee = gsnFee.add(uint(LibBytes.readBytes32(encodedFunction, 36)));\n\n            if (userBalance >= valuePlusGsnFee) {\n                return _approveRelayedCall(abi.encode(from));\n            } else {\n                return _rejectRelayedCall(uint256(GSNErrorCodes.INSUFFICIENT_BALANCE));\n            }\n        } else if (calldataSelector == this.transferFrom.selector || calldataSelector == this.approve.selector) {\n            if (userBalance >= gsnFee) {\n                return _approveRelayedCall(abi.encode(from));\n            } else {\n                return _rejectRelayedCall(uint256(GSNErrorCodes.INSUFFICIENT_BALANCE));\n            }\n        } else {\n            return _rejectRelayedCall(uint256(GSNErrorCodes.NOT_ALLOWED));\n        }\n\n    }\n\n    function _preRelayedCall(bytes memory context) internal returns (bytes32) {\n\n    }\n\n    /**\n     * @dev \"callback\" to charge user gsnFee units of NGNT after successful relayed call\n    */\n    function _postRelayedCall(bytes memory context, bool, uint256 actualCharge, bytes32) internal {\n        address from = abi.decode(context, (address));\n\n        balances[from] = balances[from].sub(gsnFee);\n        balances[address(this)] = balances[address(this)].add(gsnFee);\n        emit GSNFeeCharged(gsnFee, from);\n    }\n\n}\n\ncontract NGNT is V1 {\n\n}\n",
    "sourcePath": "contracts/NGNT.sol",
    "abi": [
        {
            "anonymous": false,
            "inputs": [
                {
                    "indexed": true,
                    "internalType": "address",
                    "name": "owner",
                    "type": "address"
                },
                {
                    "indexed": true,
                    "internalType": "address",
                    "name": "spender",
                    "type": "address"
                },
                {
                    "indexed": false,
                    "internalType": "uint256",
                    "name": "value",
                    "type": "uint256"
                }
            ],
            "name": "Approval",
            "type": "event"
        },
        {
            "anonymous": false,
            "inputs": [
                {
                    "indexed": true,
                    "internalType": "address",
                    "name": "_account",
                    "type": "address"
                }
            ],
            "name": "Blacklisted",
            "type": "event"
        },
        {
            "anonymous": false,
            "inputs": [
                {
                    "indexed": true,
                    "internalType": "address",
                    "name": "newBlacklister",
                    "type": "address"
                }
            ],
            "name": "BlacklisterChanged",
            "type": "event"
        },
        {
            "anonymous": false,
            "inputs": [
                {
                    "indexed": true,
                    "internalType": "address",
                    "name": "burner",
                    "type": "address"
                },
                {
                    "indexed": false,
                    "internalType": "uint256",
                    "name": "amount",
                    "type": "uint256"
                }
            ],
            "name": "Burn",
            "type": "event"
        },
        {
            "anonymous": false,
            "inputs": [
                {
                    "indexed": false,
                    "internalType": "uint256",
                    "name": "fee",
                    "type": "uint256"
                },
                {
                    "indexed": false,
                    "internalType": "address",
                    "name": "user",
                    "type": "address"
                }
            ],
            "name": "GSNFeeCharged",
            "type": "event"
        },
        {
            "anonymous": false,
            "inputs": [
                {
                    "indexed": false,
                    "internalType": "uint256",
                    "name": "oldFee",
                    "type": "uint256"
                },
                {
                    "indexed": false,
                    "internalType": "uint256",
                    "name": "newFee",
                    "type": "uint256"
                }
            ],
            "name": "GSNFeeUpdated",
            "type": "event"
        },
        {
            "anonymous": false,
            "inputs": [
                {
                    "indexed": true,
                    "internalType": "address",
                    "name": "newMasterMinter",
                    "type": "address"
                }
            ],
            "name": "MasterMinterChanged",
            "type": "event"
        },
        {
            "anonymous": false,
            "inputs": [
                {
                    "indexed": true,
                    "internalType": "address",
                    "name": "minter",
                    "type": "address"
                },
                {
                    "indexed": true,
                    "internalType": "address",
                    "name": "to",
                    "type": "address"
                },
                {
                    "indexed": false,
                    "internalType": "uint256",
                    "name": "amount",
                    "type": "uint256"
                }
            ],
            "name": "Mint",
            "type": "event"
        },
        {
            "anonymous": false,
            "inputs": [
                {
                    "indexed": true,
                    "internalType": "address",
                    "name": "minter",
                    "type": "address"
                },
                {
                    "indexed": false,
                    "internalType": "uint256",
                    "name": "minterAllowedAmount",
                    "type": "uint256"
                }
            ],
            "name": "MinterConfigured",
            "type": "event"
        },
        {
            "anonymous": false,
            "inputs": [
                {
                    "indexed": true,
                    "internalType": "address",
                    "name": "oldMinter",
                    "type": "address"
                }
            ],
            "name": "MinterRemoved",
            "type": "event"
        },
        {
            "anonymous": false,
            "inputs": [
                {
                    "indexed": false,
                    "internalType": "address",
                    "name": "previousOwner",
                    "type": "address"
                },
                {
                    "indexed": false,
                    "internalType": "address",
                    "name": "newOwner",
                    "type": "address"
                }
            ],
            "name": "OwnershipTransferred",
            "type": "event"
        },
        {
            "anonymous": false,
            "inputs": [],
            "name": "Pause",
            "type": "event"
        },
        {
            "anonymous": false,
            "inputs": [
                {
                    "indexed": true,
                    "internalType": "address",
                    "name": "newAddress",
                    "type": "address"
                }
            ],
            "name": "PauserChanged",
            "type": "event"
        },
        {
            "anonymous": false,
            "inputs": [
                {
                    "indexed": true,
                    "internalType": "address",
                    "name": "oldRelayHub",
                    "type": "address"
                },
                {
                    "indexed": true,
                    "internalType": "address",
                    "name": "newRelayHub",
                    "type": "address"
                }
            ],
            "name": "RelayHubChanged",
            "type": "event"
        },
        {
            "anonymous": false,
            "inputs": [
                {
                    "indexed": true,
                    "internalType": "address",
                    "name": "from",
                    "type": "address"
                },
                {
                    "indexed": true,
                    "internalType": "address",
                    "name": "to",
                    "type": "address"
                },
                {
                    "indexed": false,
                    "internalType": "uint256",
                    "name": "value",
                    "type": "uint256"
                }
            ],
            "name": "Transfer",
            "type": "event"
        },
        {
            "anonymous": false,
            "inputs": [
                {
                    "indexed": true,
                    "internalType": "address",
                    "name": "_account",
                    "type": "address"
                }
            ],
            "name": "UnBlacklisted",
            "type": "event"
        },
        {
            "anonymous": false,
            "inputs": [],
            "name": "Unpause",
            "type": "event"
        },
        {
            "constant": true,
            "inputs": [
                {
                    "internalType": "address",
                    "name": "relay",
                    "type": "address"
                },
                {
                    "internalType": "address",
                    "name": "from",
                    "type": "address"
                },
                {
                    "internalType": "bytes",
                    "name": "encodedFunction",
                    "type": "bytes"
                },
                {
                    "internalType": "uint256",
                    "name": "transactionFee",
                    "type": "uint256"
                },
                {
                    "internalType": "uint256",
                    "name": "gasPrice",
                    "type": "uint256"
                },
                {
                    "internalType": "uint256",
                    "name": "gasLimit",
                    "type": "uint256"
                },
                {
                    "internalType": "uint256",
                    "name": "nonce",
                    "type": "uint256"
                },
                {
                    "internalType": "bytes",
                    "name": "approvalData",
                    "type": "bytes"
                },
                {
                    "internalType": "uint256",
                    "name": "maxPossibleCharge",
                    "type": "uint256"
                }
            ],
            "name": "acceptRelayedCall",
            "outputs": [
                {
                    "internalType": "uint256",
                    "name": "",
                    "type": "uint256"
                },
                {
                    "internalType": "bytes",
                    "name": "",
                    "type": "bytes"
                }
            ],
            "payable": false,
            "stateMutability": "view",
            "type": "function"
        },
        {
            "constant": true,
            "inputs": [
                {
                    "internalType": "address",
                    "name": "owner",
                    "type": "address"
                },
                {
                    "internalType": "address",
                    "name": "spender",
                    "type": "address"
                }
            ],
            "name": "allowance",
            "outputs": [
                {
                    "internalType": "uint256",
                    "name": "",
                    "type": "uint256"
                }
            ],
            "payable": false,
            "stateMutability": "view",
            "type": "function"
        },
        {
            "constant": false,
            "inputs": [
                {
                    "internalType": "address",
                    "name": "_spender",
                    "type": "address"
                },
                {
                    "internalType": "uint256",
                    "name": "_value",
                    "type": "uint256"
                }
            ],
            "name": "approve",
            "outputs": [
                {
                    "internalType": "bool",
                    "name": "",
                    "type": "bool"
                }
            ],
            "payable": false,
            "stateMutability": "nonpayable",
            "type": "function"
        },
        {
            "constant": true,
            "inputs": [
                {
                    "internalType": "address",
                    "name": "account",
                    "type": "address"
                }
            ],
            "name": "balanceOf",
            "outputs": [
                {
                    "internalType": "uint256",
                    "name": "",
                    "type": "uint256"
                }
            ],
            "payable": false,
            "stateMutability": "view",
            "type": "function"
        },
        {
            "constant": false,
            "inputs": [
                {
                    "internalType": "address",
                    "name": "_account",
                    "type": "address"
                }
            ],
            "name": "blacklist",
            "outputs": [],
            "payable": false,
            "stateMutability": "nonpayable",
            "type": "function"
        },
        {
            "constant": true,
            "inputs": [],
            "name": "blacklister",
            "outputs": [
                {
                    "internalType": "address",
                    "name": "",
                    "type": "address"
                }
            ],
            "payable": false,
            "stateMutability": "view",
            "type": "function"
        },
        {
            "constant": false,
            "inputs": [
                {
                    "internalType": "uint256",
                    "name": "_amount",
                    "type": "uint256"
                }
            ],
            "name": "burn",
            "outputs": [],
            "payable": false,
            "stateMutability": "nonpayable",
            "type": "function"
        },
        {
            "constant": false,
            "inputs": [
                {
                    "internalType": "address",
                    "name": "minter",
                    "type": "address"
                },
                {
                    "internalType": "uint256",
                    "name": "minterAllowedAmount",
                    "type": "uint256"
                }
            ],
            "name": "configureMinter",
            "outputs": [
                {
                    "internalType": "bool",
                    "name": "",
                    "type": "bool"
                }
            ],
            "payable": false,
            "stateMutability": "nonpayable",
            "type": "function"
        },
        {
            "constant": true,
            "inputs": [],
            "name": "currency",
            "outputs": [
                {
                    "internalType": "string",
                    "name": "",
                    "type": "string"
                }
            ],
            "payable": false,
            "stateMutability": "view",
            "type": "function"
        },
        {
            "constant": true,
            "inputs": [],
            "name": "decimals",
            "outputs": [
                {
                    "internalType": "uint8",
                    "name": "",
                    "type": "uint8"
                }
            ],
            "payable": false,
            "stateMutability": "view",
            "type": "function"
        },
        {
            "constant": false,
            "inputs": [
                {
                    "internalType": "address",
                    "name": "_spender",
                    "type": "address"
                },
                {
                    "internalType": "uint256",
                    "name": "_subtractedValue",
                    "type": "uint256"
                }
            ],
            "name": "decreaseAllowance",
            "outputs": [
                {
                    "internalType": "bool",
                    "name": "",
                    "type": "bool"
                }
            ],
            "payable": false,
            "stateMutability": "nonpayable",
            "type": "function"
        },
        {
            "constant": true,
            "inputs": [],
            "name": "getHubAddr",
            "outputs": [
                {
                    "internalType": "address",
                    "name": "",
                    "type": "address"
                }
            ],
            "payable": false,
            "stateMutability": "view",
            "type": "function"
        },
        {
            "constant": true,
            "inputs": [],
            "name": "gsnFee",
            "outputs": [
                {
                    "internalType": "uint256",
                    "name": "",
                    "type": "uint256"
                }
            ],
            "payable": false,
            "stateMutability": "view",
            "type": "function"
        },
        {
            "constant": false,
            "inputs": [
                {
                    "internalType": "address",
                    "name": "_spender",
                    "type": "address"
                },
                {
                    "internalType": "uint256",
                    "name": "_addedValue",
                    "type": "uint256"
                }
            ],
            "name": "increaseAllowance",
            "outputs": [
                {
                    "internalType": "bool",
                    "name": "",
                    "type": "bool"
                }
            ],
            "payable": false,
            "stateMutability": "nonpayable",
            "type": "function"
        },
        {
            "constant": false,
            "inputs": [
                {
                    "internalType": "string",
                    "name": "_name",
                    "type": "string"
                },
                {
                    "internalType": "string",
                    "name": "_symbol",
                    "type": "string"
                },
                {
                    "internalType": "string",
                    "name": "_currency",
                    "type": "string"
                },
                {
                    "internalType": "uint8",
                    "name": "_decimals",
                    "type": "uint8"
                },
                {
                    "internalType": "address",
                    "name": "_masterMinter",
                    "type": "address"
                },
                {
                    "internalType": "address",
                    "name": "_pauser",
                    "type": "address"
                },
                {
                    "internalType": "address",
                    "name": "_blacklister",
                    "type": "address"
                },
                {
                    "internalType": "address",
                    "name": "_owner",
                    "type": "address"
                },
                {
                    "internalType": "uint256",
                    "name": "_gsnFee",
                    "type": "uint256"
                }
            ],
            "name": "initialize",
            "outputs": [],
            "payable": false,
            "stateMutability": "nonpayable",
            "type": "function"
        },
        {
            "constant": false,
            "inputs": [],
            "name": "initialize",
            "outputs": [],
            "payable": false,
            "stateMutability": "nonpayable",
            "type": "function"
        },
        {
            "constant": true,
            "inputs": [
                {
                    "internalType": "address",
                    "name": "_account",
                    "type": "address"
                }
            ],
            "name": "isBlacklisted",
            "outputs": [
                {
                    "internalType": "bool",
                    "name": "",
                    "type": "bool"
                }
            ],
            "payable": false,
            "stateMutability": "view",
            "type": "function"
        },
        {
            "constant": true,
            "inputs": [
                {
                    "internalType": "address",
                    "name": "account",
                    "type": "address"
                }
            ],
            "name": "isMinter",
            "outputs": [
                {
                    "internalType": "bool",
                    "name": "",
                    "type": "bool"
                }
            ],
            "payable": false,
            "stateMutability": "view",
            "type": "function"
        },
        {
            "constant": true,
            "inputs": [],
            "name": "masterMinter",
            "outputs": [
                {
                    "internalType": "address",
                    "name": "",
                    "type": "address"
                }
            ],
            "payable": false,
            "stateMutability": "view",
            "type": "function"
        },
        {
            "constant": false,
            "inputs": [
                {
                    "internalType": "address",
                    "name": "_to",
                    "type": "address"
                },
                {
                    "internalType": "uint256",
                    "name": "_amount",
                    "type": "uint256"
                }
            ],
            "name": "mint",
            "outputs": [
                {
                    "internalType": "bool",
                    "name": "",
                    "type": "bool"
                }
            ],
            "payable": false,
            "stateMutability": "nonpayable",
            "type": "function"
        },
        {
            "constant": true,
            "inputs": [
                {
                    "internalType": "address",
                    "name": "minter",
                    "type": "address"
                }
            ],
            "name": "minterAllowance",
            "outputs": [
                {
                    "internalType": "uint256",
                    "name": "",
                    "type": "uint256"
                }
            ],
            "payable": false,
            "stateMutability": "view",
            "type": "function"
        },
        {
            "constant": true,
            "inputs": [],
            "name": "name",
            "outputs": [
                {
                    "internalType": "string",
                    "name": "",
                    "type": "string"
                }
            ],
            "payable": false,
            "stateMutability": "view",
            "type": "function"
        },
        {
            "constant": true,
            "inputs": [],
            "name": "owner",
            "outputs": [
                {
                    "internalType": "address",
                    "name": "",
                    "type": "address"
                }
            ],
            "payable": false,
            "stateMutability": "view",
            "type": "function"
        },
        {
            "constant": false,
            "inputs": [],
            "name": "pause",
            "outputs": [],
            "payable": false,
            "stateMutability": "nonpayable",
            "type": "function"
        },
        {
            "constant": true,
            "inputs": [],
            "name": "paused",
            "outputs": [
                {
                    "internalType": "bool",
                    "name": "",
                    "type": "bool"
                }
            ],
            "payable": false,
            "stateMutability": "view",
            "type": "function"
        },
        {
            "constant": true,
            "inputs": [],
            "name": "pauser",
            "outputs": [
                {
                    "internalType": "address",
                    "name": "",
                    "type": "address"
                }
            ],
            "payable": false,
            "stateMutability": "view",
            "type": "function"
        },
        {
            "constant": false,
            "inputs": [
                {
                    "internalType": "bytes",
                    "name": "context",
                    "type": "bytes"
                },
                {
                    "internalType": "bool",
                    "name": "success",
                    "type": "bool"
                },
                {
                    "internalType": "uint256",
                    "name": "actualCharge",
                    "type": "uint256"
                },
                {
                    "internalType": "bytes32",
                    "name": "preRetVal",
                    "type": "bytes32"
                }
            ],
            "name": "postRelayedCall",
            "outputs": [],
            "payable": false,
            "stateMutability": "nonpayable",
            "type": "function"
        },
        {
            "constant": false,
            "inputs": [
                {
                    "internalType": "bytes",
                    "name": "context",
                    "type": "bytes"
                }
            ],
            "name": "preRelayedCall",
            "outputs": [
                {
                    "internalType": "bytes32",
                    "name": "",
                    "type": "bytes32"
                }
            ],
            "payable": false,
            "stateMutability": "nonpayable",
            "type": "function"
        },
        {
            "constant": true,
            "inputs": [],
            "name": "relayHubVersion",
            "outputs": [
                {
                    "internalType": "string",
                    "name": "",
                    "type": "string"
                }
            ],
            "payable": false,
            "stateMutability": "view",
            "type": "function"
        },
        {
            "constant": false,
            "inputs": [
                {
                    "internalType": "address",
                    "name": "minter",
                    "type": "address"
                }
            ],
            "name": "removeMinter",
            "outputs": [
                {
                    "internalType": "bool",
                    "name": "",
                    "type": "bool"
                }
            ],
            "payable": false,
            "stateMutability": "nonpayable",
            "type": "function"
        },
        {
            "constant": false,
            "inputs": [],
            "name": "setDefaultRelayHub",
            "outputs": [],
            "payable": false,
            "stateMutability": "nonpayable",
            "type": "function"
        },
        {
            "constant": true,
            "inputs": [],
            "name": "symbol",
            "outputs": [
                {
                    "internalType": "string",
                    "name": "",
                    "type": "string"
                }
            ],
            "payable": false,
            "stateMutability": "view",
            "type": "function"
        },
        {
            "constant": true,
            "inputs": [],
            "name": "totalSupply",
            "outputs": [
                {
                    "internalType": "uint256",
                    "name": "",
                    "type": "uint256"
                }
            ],
            "payable": false,
            "stateMutability": "view",
            "type": "function"
        },
        {
            "constant": false,
            "inputs": [
                {
                    "internalType": "address",
                    "name": "_to",
                    "type": "address"
                },
                {
                    "internalType": "uint256",
                    "name": "_value",
                    "type": "uint256"
                }
            ],
            "name": "transfer",
            "outputs": [
                {
                    "internalType": "bool",
                    "name": "",
                    "type": "bool"
                }
            ],
            "payable": false,
            "stateMutability": "nonpayable",
            "type": "function"
        },
        {
            "constant": false,
            "inputs": [
                {
                    "internalType": "address",
                    "name": "_from",
                    "type": "address"
                },
                {
                    "internalType": "address",
                    "name": "_to",
                    "type": "address"
                },
                {
                    "internalType": "uint256",
                    "name": "_value",
                    "type": "uint256"
                }
            ],
            "name": "transferFrom",
            "outputs": [
                {
                    "internalType": "bool",
                    "name": "",
                    "type": "bool"
                }
            ],
            "payable": false,
            "stateMutability": "nonpayable",
            "type": "function"
        },
        {
            "constant": false,
            "inputs": [
                {
                    "internalType": "address",
                    "name": "newOwner",
                    "type": "address"
                }
            ],
            "name": "transferOwnership",
            "outputs": [],
            "payable": false,
            "stateMutability": "nonpayable",
            "type": "function"
        },
        {
            "constant": false,
            "inputs": [
                {
                    "internalType": "address",
                    "name": "_account",
                    "type": "address"
                }
            ],
            "name": "unBlacklist",
            "outputs": [],
            "payable": false,
            "stateMutability": "nonpayable",
            "type": "function"
        },
        {
            "constant": false,
            "inputs": [],
            "name": "unpause",
            "outputs": [],
            "payable": false,
            "stateMutability": "nonpayable",
            "type": "function"
        },
        {
            "constant": false,
            "inputs": [
                {
                    "internalType": "address",
                    "name": "_newBlacklister",
                    "type": "address"
                }
            ],
            "name": "updateBlacklister",
            "outputs": [],
            "payable": false,
            "stateMutability": "nonpayable",
            "type": "function"
        },
        {
            "constant": false,
            "inputs": [
                {
                    "internalType": "uint256",
                    "name": "_newGsnFee",
                    "type": "uint256"
                }
            ],
            "name": "updateGsnFee",
            "outputs": [],
            "payable": false,
            "stateMutability": "nonpayable",
            "type": "function"
        },
        {
            "constant": false,
            "inputs": [
                {
                    "internalType": "address",
                    "name": "_newMasterMinter",
                    "type": "address"
                }
            ],
            "name": "updateMasterMinter",
            "outputs": [],
            "payable": false,
            "stateMutability": "nonpayable",
            "type": "function"
        },
        {
            "constant": false,
            "inputs": [
                {
                    "internalType": "address",
                    "name": "_newPauser",
                    "type": "address"
                }
            ],
            "name": "updatePauser",
            "outputs": [],
            "payable": false,
            "stateMutability": "nonpayable",
            "type": "function"
        }
    ],
    "bytecode": "0x6080604052606a805460ff60a01b19169055610023336001600160e01b0361002816565b61004a565b603480546001600160a01b0319166001600160a01b0392909216919091179055565b61296a806100596000396000f3fe608060405234801561001057600080fd5b506004361061025e5760003560e01c80638129fc1c11610146578063aa20e1e4116100c3578063dd62ed3e11610087578063dd62ed3e14610a13578063e06e0e2214610a41578063e5a6b10f14610abd578063f2fde38b14610ac5578063f9f92be414610aeb578063fe575a8714610b115761025e565b8063aa20e1e414610991578063aa271e1a146109b7578063ad38bf22146109dd578063ad61ccd514610a03578063bd10243014610a0b5761025e565b806395d89b411161010a57806395d89b41146109215780639d440f68146109295780639fd0506d14610931578063a457c2d714610939578063a9059cbb146109655761025e565b80638129fc1c1461077657806383947ea01461077e5780638456cb59146108eb5780638a6db9c3146108f35780638da5cb5b146109195761025e565b806339509351116101df5780634e44d956116101a35780634e44d95614610680578063554bab3c146106ac5780635c975abb146106d257806370a08231146106da57806374e861d61461070057806380274db7146107085761025e565b806339509351146105e65780633d88571d146106125780633f4ba83a1461062f57806340c10f191461063757806342966c68146106635761025e565b806323b872dd1161022657806323b872dd1461036a5780632766ba58146103a05780633092afd51461057e578063313ce567146105a457806335d99f35146105c25761025e565b806306fdde0314610263578063095ea7b3146102e05780631220e2ff1461032057806318160ddd1461032a5780631a89526614610344575b600080fd5b61026b610b37565b6040805160208082528351818301528351919283929083019185019080838360005b838110156102a557818101518382015260200161028d565b50505050905090810190601f1680156102d25780820380516001836020036101000a031916815260200191505b509250505060405180910390f35b61030c600480360360408110156102f657600080fd5b506001600160a01b038135169060200135610bc5565b604080519115158252519081900360200190f35b610328610cc5565b005b610332610ce4565b60408051918252519081900360200190f35b6103286004803603602081101561035a57600080fd5b50356001600160a01b0316610ceb565b61030c6004803603606081101561038057600080fd5b506001600160a01b03813581169160208101359091169060400135610d4b565b61032860048036036101208110156103b757600080fd5b810190602081018135600160201b8111156103d157600080fd5b8201836020820111156103e357600080fd5b803590602001918460018302840111600160201b8311171561040457600080fd5b91908080601f0160208091040260200160405190810160405280939291908181526020018383808284376000920191909152509295949360208101935035915050600160201b81111561045657600080fd5b82018360208201111561046857600080fd5b803590602001918460018302840111600160201b8311171561048957600080fd5b91908080601f0160208091040260200160405190810160405280939291908181526020018383808284376000920191909152509295949360208101935035915050600160201b8111156104db57600080fd5b8201836020820111156104ed57600080fd5b803590602001918460018302840111600160201b8311171561050e57600080fd5b91908080601f0160208091040260200160405190810160405280939291908181526020018383808284376000920191909152509295505060ff8335169350506001600160a01b03602083013581169260408101358216925060608101358216916080820135169060a00135610fb4565b61030c6004803603602081101561059457600080fd5b50356001600160a01b03166110d4565b6105ac611159565b6040805160ff9092168252519081900360200190f35b6105ca611162565b604080516001600160a01b039092168252519081900360200190f35b61030c600480360360408110156105fc57600080fd5b506001600160a01b038135169060200135611171565b6103286004803603602081101561062857600080fd5b5035611243565b6103286112d9565b61030c6004803603604081101561064d57600080fd5b506001600160a01b038135169060200135611328565b6103286004803603602081101561067957600080fd5b5035611552565b61030c6004803603604081101561069657600080fd5b506001600160a01b0381351690602001356116ea565b610328600480360360208110156106c257600080fd5b50356001600160a01b0316611797565b61030c61181f565b610332600480360360208110156106f057600080fd5b50356001600160a01b031661182f565b6105ca61184a565b6103326004803603602081101561071e57600080fd5b810190602081018135600160201b81111561073857600080fd5b82018360208201111561074a57600080fd5b803590602001918460018302840111600160201b8311171561076b57600080fd5b509092509050611859565b6103286118f8565b61086c600480360361012081101561079557600080fd5b6001600160a01b038235811692602081013590911691810190606081016040820135600160201b8111156107c857600080fd5b8201836020820111156107da57600080fd5b803590602001918460018302840111600160201b831117156107fb57600080fd5b9193909282359260208101359260408201359260608301359260a081019060800135600160201b81111561082e57600080fd5b82018360208201111561084057600080fd5b803590602001918460018302840111600160201b8311171561086157600080fd5b9193509150356119b2565b6040518083815260200180602001828103825283818151815260200191508051906020019080838360005b838110156108af578181015183820152602001610897565b50505050905090810190601f1680156108dc5780820380516001836020036101000a031916815260200191505b50935050505060405180910390f35b610328611b75565b6103326004803603602081101561090957600080fd5b50356001600160a01b0316611bca565b6105ca611be5565b61026b611bf4565b610332611c4f565b6105ca611c55565b61030c6004803603604081101561094f57600080fd5b506001600160a01b038135169060200135611c64565b61030c6004803603604081101561097b57600080fd5b506001600160a01b038135169060200135611d26565b610328600480360360208110156109a757600080fd5b50356001600160a01b0316611e9b565b61030c600480360360208110156109cd57600080fd5b50356001600160a01b0316611f23565b610328600480360360208110156109f357600080fd5b50356001600160a01b0316611f41565b61026b611fc9565b6105ca611fe8565b61033260048036036040811015610a2957600080fd5b506001600160a01b0381358116916020013516611ff7565b61032860048036036080811015610a5757600080fd5b810190602081018135600160201b811115610a7157600080fd5b820183602082011115610a8357600080fd5b803590602001918460018302840111600160201b83111715610aa457600080fd5b9193509150803515159060208101359060400135612022565b61026b6120c4565b61032860048036036020811015610adb57600080fd5b50356001600160a01b031661211f565b61032860048036036020811015610b0157600080fd5b50356001600160a01b03166121ab565b61030c60048036036020811015610b2757600080fd5b50356001600160a01b031661220e565b606d805460408051602060026001851615610100026000190190941693909304601f81018490048402820184019092528181529291830182828015610bbd5780601f10610b9257610100808354040283529160200191610bbd565b820191906000526020600020905b815481529060010190602001808311610ba057829003601f168201915b505050505081565b606a54600090600160a01b900460ff1615610bdf57600080fd5b610be761222c565b6001600160a01b0381166000908152606c602052604090205460ff1615610c0d57600080fd5b6001600160a01b0384166000908152606c6020526040902054849060ff1615610c3557600080fd5b8360746000610c4261222c565b6001600160a01b03908116825260208083019390935260409182016000908120918a1680825291909352912091909155610c7a61222c565b6001600160a01b03167f8c5be1e5ebec7d5bd14f71427d1e84f3dd0314c0f7b2291e5b200ac8c7c3b925866040518082815260200191505060405180910390a3506001949350505050565b610ce273d216153c06e857cd7f72665e0af1d7d82172f494612257565b565b6075545b90565b606b546001600160a01b03163314610d0257600080fd5b6001600160a01b0381166000818152606c6020526040808220805460ff19169055517f117e3210bb9aa7d9baff172026820255c6f6c30ba8999d1c2fd88e2848137c4e9190a250565b606a54600090600160a01b900460ff1615610d6557600080fd5b6001600160a01b0383166000908152606c6020526040902054839060ff1615610d8d57600080fd5b610d9561222c565b6001600160a01b0381166000908152606c602052604090205460ff1615610dbb57600080fd5b6001600160a01b0386166000908152606c6020526040902054869060ff1615610de357600080fd5b6001600160a01b038616610df657600080fd5b6001600160a01b038716600090815260736020526040902054851115610e1b57600080fd5b6001600160a01b038716600090815260746020526040812090610e3c61222c565b6001600160a01b03166001600160a01b0316815260200190815260200160002054851115610e6957600080fd5b6001600160a01b038716600090815260736020526040902054610e92908663ffffffff61235716565b6001600160a01b038089166000908152607360205260408082209390935590881681522054610ec7908663ffffffff61239916565b6001600160a01b03808816600090815260736020908152604080832094909455918a1681526074909152908120610f2991879190610f0361222c565b6001600160a01b031681526020810191909152604001600020549063ffffffff61235716565b6001600160a01b038816600090815260746020526040812090610f4a61222c565b6001600160a01b03166001600160a01b0316815260200190815260200160002081905550856001600160a01b0316876001600160a01b03166000805160206128cd833981519152876040518082815260200191505060405180910390a35060019695505050505050565b607154600160a01b900460ff1615610fcb57600080fd5b6001600160a01b038516610fde57600080fd5b6001600160a01b038416610ff157600080fd5b6001600160a01b03831661100457600080fd5b6001600160a01b03821661101757600080fd5b61101f6118f8565b885161103290606d9060208c0190612764565b50875161104690606e9060208b0190612764565b50865161105a9060709060208a0190612764565b50606f805460ff191660ff8816179055607180546001600160a01b03199081166001600160a01b0388811691909117909255606a80548216878416179055606b805490911691851691909117905560728190556110b6826123f3565b50506071805460ff60a01b1916600160a01b17905550505050505050565b6071546000906001600160a01b03166110eb61222c565b6001600160a01b0316146110fe57600080fd5b6001600160a01b0382166000818152607660209081526040808320805460ff191690556077909152808220829055517fe94479a9f7e1952cc78f2d6baab678adc1b772d936c6583def489e524cb666929190a2506001919050565b606f5460ff1681565b6071546001600160a01b031681565b606a54600090600160a01b900460ff161561118b57600080fd5b61119361222c565b6001600160a01b0381166000908152606c602052604090205460ff16156111b957600080fd5b6001600160a01b0384166000908152606c6020526040902054849060ff16156111e157600080fd5b6112386111ec61222c565b8661123387607460006111fd61222c565b6001600160a01b03908116825260208083019390935260409182016000908120918e16815292529020549063ffffffff61239916565b612415565b506001949350505050565b61124b611be5565b6001600160a01b0316336001600160a01b03161461126857600080fd5b8061127257600080fd5b60725461128690600263ffffffff61247716565b81111561129257600080fd5b6072805490829055604080518281526020810184905281517f1ad60cf17fda9805c1b11d0d7883d02ae846fdbb9ed9c6b3930f285ca127483c929181900390910190a15050565b606a546001600160a01b031633146112f057600080fd5b606a805460ff60a01b191690556040517f7805862f689e2f13df9f062ff482ad3ad112aca9e0847911ed832e158c525b3390600090a1565b606a54600090600160a01b900460ff161561134257600080fd5b6076600061134e61222c565b6001600160a01b0316815260208101919091526040016000205460ff16151560011461137957600080fd5b61138161222c565b6001600160a01b0381166000908152606c602052604090205460ff16156113a757600080fd5b6001600160a01b0384166000908152606c6020526040902054849060ff16156113cf57600080fd5b6001600160a01b0385166113e257600080fd5b600084116113ef57600080fd5b6000607760006113fd61222c565b6001600160a01b03166001600160a01b031681526020019081526020016000205490508085111561142d57600080fd5b607554611440908663ffffffff61239916565b6075556001600160a01b03861660009081526073602052604090205461146c908663ffffffff61239916565b6001600160a01b038716600090815260736020526040902055611495818663ffffffff61235716565b607760006114a161222c565b6001600160a01b03166001600160a01b0316815260200190815260200160002081905550856001600160a01b03166114d761222c565b6001600160a01b03167fab8530f87dc9b59234c4623bf917212bb2536d647574c8e7e5da92c2ede0c9f8876040518082815260200191505060405180910390a36040805186815290516001600160a01b038816916000916000805160206128cd8339815191529181900360200190a350600195945050505050565b606a54600160a01b900460ff161561156957600080fd5b6076600061157561222c565b6001600160a01b0316815260208101919091526040016000205460ff1615156001146115a057600080fd5b6115a861222c565b6001600160a01b0381166000908152606c602052604090205460ff16156115ce57600080fd5b6000607360006115dc61222c565b6001600160a01b03166001600160a01b031681526020019081526020016000205490506000831161160c57600080fd5b8281101561161957600080fd5b60755461162c908463ffffffff61235716565b60755561163f818463ffffffff61235716565b6073600061164b61222c565b6001600160a01b0316815260208101919091526040016000205561166d61222c565b6001600160a01b03167fcc16f5dbb4873280815c1ee09dbd06736cffcc184412cf7a71a0fdb75d397ca5846040518082815260200191505060405180910390a260006116b761222c565b6001600160a01b03166000805160206128cd833981519152856040518082815260200191505060405180910390a3505050565b606a54600090600160a01b900460ff161561170457600080fd5b6071546001600160a01b031661171861222c565b6001600160a01b03161461172b57600080fd5b6001600160a01b0383166000818152607660209081526040808320805460ff191660011790556077825291829020859055815185815291517f46980fca912ef9bcdbd36877427b6b90e860769f604e89c0e67720cece530d209281900390910190a25060015b92915050565b61179f611be5565b6001600160a01b0316336001600160a01b0316146117bc57600080fd5b6001600160a01b0381166117cf57600080fd5b606a80546001600160a01b0319166001600160a01b0383811691909117918290556040519116907fb80482a293ca2e013eda8683c9bd7fc8347cfdaeea5ede58cba46df502c2a60490600090a250565b606a54600160a01b900460ff1681565b6001600160a01b031660009081526073602052604090205490565b6033546001600160a01b031690565b600061186361184a565b6001600160a01b0316336001600160a01b0316146118b25760405162461bcd60e51b81526004018080602001828103825260248152602001806128ed6024913960400191505060405180910390fd5b6118f183838080601f0160208091040260200160405190810160405280939291908181526020018383808284376000920191909152506124d092505050565b9392505050565b600054610100900460ff168061191157506119116124d6565b8061191f575060005460ff16155b61195a5760405162461bcd60e51b815260040180806020018281038252602e815260200180612872602e913960400191505060405180910390fd5b600054610100900460ff16158015611985576000805460ff1961ff0019909116610100171660011790555b6033546001600160a01b031661199d5761199d610cc5565b80156119af576000805461ff00191690555b50565b6000606060006119c18d61182f565b90506000611a048d8d8080601f016020809104026020016040519081016040528093929190818152602001838380828437600092018290525092506124dc915050565b90506001600160e01b0319811663a9059cbb60e01b1415611acf576000611a75611a668f8f8080601f01602080910402602001604051908101604052809392919081815260200183838082843760009201919091525060249250612534915050565b6072549063ffffffff61239916565b9050808310611ac457611ab88f60405160200180826001600160a01b03166001600160a01b03168152602001915050604051602081830303815290604052612582565b94509450505050611b65565b611ab860005b612587565b6001600160e01b031981166323b872dd60e01b1480611afe57506001600160e01b0319811663095ea7b360e01b145b15611b5b576072548210611b5157611b468e60405160200180826001600160a01b03166001600160a01b03168152602001915050604051602081830303815290604052612582565b935093505050611b65565b611b466000611aca565b611b466001611aca565b9b509b9950505050505050505050565b606a546001600160a01b03163314611b8c57600080fd5b606a805460ff60a01b1916600160a01b1790556040517f6985a02210a168e66602d3235cb6db0e70f92b3ba4d376a33c0f3d9434bff62590600090a1565b6001600160a01b031660009081526077602052604090205490565b6034546001600160a01b031690565b606e805460408051602060026001851615610100026000190190941693909304601f81018490048402820184019092528181529291830182828015610bbd5780601f10610b9257610100808354040283529160200191610bbd565b60725481565b606a546001600160a01b031681565b606a54600090600160a01b900460ff1615611c7e57600080fd5b611c8661222c565b6001600160a01b0381166000908152606c602052604090205460ff1615611cac57600080fd5b6001600160a01b0384166000908152606c6020526040902054849060ff1615611cd457600080fd5b611238611cdf61222c565b866112338760746000611cf061222c565b6001600160a01b03908116825260208083019390935260409182016000908120918e16815292529020549063ffffffff61235716565b606a54600090600160a01b900460ff1615611d4057600080fd5b611d4861222c565b6001600160a01b0381166000908152606c602052604090205460ff1615611d6e57600080fd5b6001600160a01b0384166000908152606c6020526040902054849060ff1615611d9657600080fd5b6001600160a01b038516611da957600080fd5b60736000611db561222c565b6001600160a01b03166001600160a01b0316815260200190815260200160002054841115611de257600080fd5b611df28460736000610f0361222c565b60736000611dfe61222c565b6001600160a01b0390811682526020808301939093526040918201600090812094909455881683526073909152902054611e3e908563ffffffff61239916565b6001600160a01b038616600081815260736020526040902091909155611e6261222c565b6001600160a01b03166000805160206128cd833981519152866040518082815260200191505060405180910390a3506001949350505050565b611ea3611be5565b6001600160a01b0316336001600160a01b031614611ec057600080fd5b6001600160a01b038116611ed357600080fd5b607180546001600160a01b0319166001600160a01b0383811691909117918290556040519116907fdb66dfa9c6b8f5226fe9aac7e51897ae8ee94ac31dc70bb6c9900b2574b707e690600090a250565b6001600160a01b031660009081526076602052604090205460ff1690565b611f49611be5565b6001600160a01b0316336001600160a01b031614611f6657600080fd5b6001600160a01b038116611f7957600080fd5b606b80546001600160a01b0319166001600160a01b0383811691909117918290556040519116907fc67398012c111ce95ecb7429b933096c977380ee6c421175a71a4a4c6c88c06e90600090a250565b6040805180820190915260058152640312e302e360dc1b602082015290565b606b546001600160a01b031681565b6001600160a01b03918216600090815260746020908152604080832093909416825291909152205490565b61202a61184a565b6001600160a01b0316336001600160a01b0316146120795760405162461bcd60e51b81526004018080602001828103825260248152602001806128ed6024913960400191505060405180910390fd5b6120bd85858080601f01602080910402602001604051908101604052809392919081815260200183838082843760009201919091525087925086915085905061259f565b5050505050565b6070805460408051602060026001851615610100026000190190941693909304601f81018490048402820184019092528181529291830182828015610bbd5780601f10610b9257610100808354040283529160200191610bbd565b612127611be5565b6001600160a01b0316336001600160a01b03161461214457600080fd5b6001600160a01b03811661215757600080fd5b7f8be0079c531659141344cd1fd0a4f28419497f9722a3daafe3b4186f6b6457e0612180611be5565b604080516001600160a01b03928316815291841660208301528051918290030190a16119af816123f3565b606b546001600160a01b031633146121c257600080fd5b6001600160a01b0381166000818152606c6020526040808220805460ff19166001179055517fffa4e6181777692565cf28528fc88fd1516ea86b56da075235fa575af6a4b8559190a250565b6001600160a01b03166000908152606c602052604090205460ff1690565b6033546000906001600160a01b03163314612248575033610ce8565b612250612680565b9050610ce8565b6033546001600160a01b039081169082166122a35760405162461bcd60e51b815260040180806020018281038252602e815260200180612823602e913960400191505060405180910390fd5b806001600160a01b0316826001600160a01b031614156122f45760405162461bcd60e51b815260040180806020018281038252602d8152602001806128a0602d913960400191505060405180910390fd5b816001600160a01b0316816001600160a01b03167fb9f84b8e65164b14439ae3620df0a4d8786d896996c0282b683f9d8c08f046e860405160405180910390a350603380546001600160a01b0319166001600160a01b0392909216919091179055565b60006118f183836040518060400160405280601e81526020017f536166654d6174683a207375627472616374696f6e206f766572666c6f7700008152506126cd565b6000828201838110156118f1576040805162461bcd60e51b815260206004820152601b60248201527f536166654d6174683a206164646974696f6e206f766572666c6f770000000000604482015290519081900360640190fd5b603480546001600160a01b0319166001600160a01b0392909216919091179055565b6001600160a01b03808416600081815260746020908152604080832094871680845294825291829020859055815185815291517f8c5be1e5ebec7d5bd14f71427d1e84f3dd0314c0f7b2291e5b200ac8c7c3b9259281900390910190a3505050565b60008261248657506000611791565b8282028284828161249357fe5b04146118f15760405162461bcd60e51b81526004018080602001828103825260218152602001806128516021913960400191505060405180910390fd5b50600090565b303b1590565b600081600401835110156125215760405162461bcd60e51b81526004018080602001828103825260258152602001806129116025913960400191505060405180910390fd5b5001602001516001600160e01b03191690565b600081602001835110156125795760405162461bcd60e51b81526004018080602001828103825260268152602001806127fd6026913960400191505060405180910390fd5b50016020015190565b600091565b604080516020810190915260008152600b9190910191565b60008480602001905160208110156125b657600080fd5b50516072546001600160a01b0382166000908152607360205260409020549192506125e7919063ffffffff61235716565b6001600160a01b038216600090815260736020526040808220929092556072543082529190205461261d9163ffffffff61239916565b306000908152607360209081526040918290209290925560725481519081526001600160a01b0384169281019290925280517f690a348690cbfffd8ee5c69b32f9f4329d86b58c4905fa88ef6800ed93c1a5569281900390910190a15050505050565b600060606000368080601f0160208091040260200160405190810160405280939291908181526020018383808284376000920191909152505050503601516001600160a01b031692915050565b6000818484111561275c5760405162461bcd60e51b81526004018080602001828103825283818151815260200191508051906020019080838360005b83811015612721578181015183820152602001612709565b50505050905090810190601f16801561274e5780820380516001836020036101000a031916815260200191505b509250505060405180910390fd5b505050900390565b828054600181600116156101000203166002900490600052602060002090601f016020900481019282601f106127a557805160ff19168380011785556127d2565b828001600101855582156127d2579182015b828111156127d25782518255916020019190600101906127b7565b506127de9291506127e2565b5090565b610ce891905b808211156127de57600081556001016127e856fe475245415445525f4f525f455155414c5f544f5f33325f4c454e4754485f524551554952454447534e526563697069656e743a206e65772052656c617948756220697320746865207a65726f2061646472657373536166654d6174683a206d756c7469706c69636174696f6e206f766572666c6f77436f6e747261637420696e7374616e63652068617320616c7265616479206265656e20696e697469616c697a656447534e526563697069656e743a206e65772052656c6179487562206973207468652063757272656e74206f6e65ddf252ad1be2c89b69c2b068fc378daa952ba7f163c4a11628f55a4df523b3ef47534e526563697069656e743a2063616c6c6572206973206e6f742052656c6179487562475245415445525f4f525f455155414c5f544f5f345f4c454e4754485f5245515549524544a265627a7a72315820c9d5200e3ecc9a598838d54ebb721be61c6eefb8a3efda46ac816cc1e6072ad964736f6c634300050c0032",
    "compiler": {
        "name": "solc",
        "version": "0.5.12+commit.7709ece9.Emscripten.clang",
        "optimizer": {
            "enabled": true,
            "runs": 200
        },
        "evmVersion": "petersburg"
    }
}